:020000040800F2
:10000000F8770010D50500089F3B03088D3B0308D7
:10001000A13B0308AD3B0308B93B03080000000007
:10002000000000000000000000000000C53B0308C5
:10003000C73B030800000000F1490308D10100207C
:1000400069040008473C0308513C0308593C030875
:10005000E5AE030869040008D53B0308DB3B030851
:10006000E13B0308E73B0308ED3B0308F5670308A2
:100070000568030815680308256803083568030840
:100080004568030855680308690400086904000806
:10009000258703082B87030831870308F33B0308F0
:1000A0006D3C0308733C0308853C03088B3C030844
:1000B000913C0308973C03089D3C0308D93C030886
:1000C000DF3C0308E53C0308EB3C03086904000837
:1000D00069040008B9020020BF020020C502002008
:1000E000173C03084B3C0308690400086904000836
:1000F000C93C030869040008CF3C030869040008F0
:100100006904000869040008A53C030869040008A4
:10011000AD020020B3020020BD3C0308C33C03082D
:10012000656803087568030885680308956803080F
:10013000A568030869040008690400086904000848
:10014000690400086904000869040008C93B030841
:10015000B5680308C5680308D33C030869040008B0
:10016000F13C0308F73C030869040008690400082F
:100170006904000869040008690400080000000020
:1001800069040008690400080248002343643C3005
:1001900000F05EB9C4040020054B43F82010054B65
:1001A00001221A60044B4FF080525A60704700BF22
:1001B000900F0020940F002000ED00E010F4FF7F6E
:1001C00002BF024B0422C3F8002E704700E100E09A
:1001D0000D4B10B51C6801341C604FF0E02304F097
:1001E00001021B69094B53F822300BB12046984796
:1001F000074B1B68A34205D1BDE81040054900200C
:10020000FFF7CABF10BD00BF480A0020980F0020AA
:10021000440A00201D9E0208224B03EB800310B508
:10022000D3F87C41002C3BD06268D3699BB2E38356
:100230009B0618D5618A00292DD0A38A9BB2013371
:10024000B3FBF1F001FB1033E18A9BB2994222D05B
:10025000918CA2890A40A17A91B11349096891420F
:100260000ED1FFF791FFE38B626803F01801116272
:10027000A28B134214D0206ABDE8104000F0ECB805
:10028000E17AA0690129A18A89B20CBF20F8112066
:100290004254A382E7E7136823F020031360E2E7E8
:1002A00010BD00BFC4040020900400200420FFF70C
:1002B000B3BF0520FFF7B0BF0120FFF7ADBF02209D
:1002C000FFF7AABF0320FFF7A7BF00000B4B5A6937
:1002D00011F0010F14BF22F4006242F400625A616F
:1002E0005A6960F3CA025A615A6942F002025A61BD
:1002F0005A6942F480325A61704700BF00200240C0
:1003000070B5054600F09AF8104C06462369DA03EA
:100310000BD423694CF2FA3213400FD00C494A68CF
:100320001A434A600120236170BD691CEED000F0C1
:1003300085F8801BA842E9D30320F5E72369DB0792
:1003400044BF012323610020EEE700BF00200240EC
:100350009C0400202DE9F047354D2B78012B0646F3
:10036000884662D001274CF250302F70FFF7C8FF4B
:10037000044640BB2F4B68601A6812F4007F1A686D
:1003800026D022F400721A601A68510506D51A6840
:1003900022F480621A6003232B7700E02F77336802
:1003A000012B1FD1706800F04FF84CF25030FFF76E
:1003B000A7FF204A536923F4004323F004030446B3
:1003C000536100F04DF800232B702046BDE8F08704
:1003D000520505D51A6822F480621A600223DBE711
:1003E0002877DCE74FF0FF33C8F80030B768DFF854
:1003F0004490DFF844A0D6E902321344BB42E0D96E
:1004000071683846FFF762FF4CF25030FFF778FF13
:10041000D9F8143003EA0A03C9F8143018B1C8F83F
:1004200000700446CDE70137E5E70224CDE700BFC1
:100430009C0400200020024005F8FFFF014B1868D3
:10044000704700BF480A00205FF800F0C9B40208F6
:100450005FF800F0F9E300085FF800F0F597020894
:080460005FF800F0F5B402089A
:10046800FEE700000E4AD2F8883043F47003C2F861
:1004780088300C4B1A68002142F001021A6099601A
:100488001A6822F0A85222F410221A604FF48052FF
:10049800DA601A6822F480221A609961704700BFF6
:1004A80000ED00E0001002402DE9F041BAB0404DE7
:1004B8001022002103A828F0B3FD2422002108A857
:1004C80028F0AEFDD5F8903023F01803C5F8903029
:1004D8001423079360230F930F230124022602930A
:1004E8004FF00708282307A8CDE91438CDE9166688
:1004F8000D9412940994119613942DF055F910B196
:100508002C4832F0E9FF149B139A3021DB00B3FB2F
:10051800F2F3B3FBF1F201FB1232003A1599B3FB87
:10052800F1F118BF012202A834F02AFB074608B1EE
:100538002148E6E72DF076FF204B18934FF08053C3
:1005480036934FF08063339335934FF48073399328
:100558001823CDE91B3818A8194B2C97CDE9194455
:10056800CDE91D6631971F932DF062FD044608B151
:100578001448C6E7AB6D43F08053AB65AB6D03F031
:10058800805301934FF40070019B2DF005F82DF076
:1005980025FC4FF47A73B0FBF3F02AF089FD0420B0
:1005A8002AF09AFD084B83F823403AB0BDE8F08161
:1005B8000010024080C6030892C60308406806007F
:1005C80000001101A6C6030800ED00E00446DFF8AC
:1005D8002CD00B490B4A0C4B03E051F8040B42F8A2
:1005E800040B9A42F9D300200849094A01E041F86E
:1005F800040B9142FBD3204633F0C2B8F8770010C1
:10060800D811050868040020C4040020C404002090
:100618006428002040F8044B40F8045B40F8046B61
:1006280040F8047B40F8048B40F8049B40F804AB86
:1006380040F804BB40F804CB40F804DB6846704738
:10064800024B5A690260586100207047C4040020B8
:10065800024B5A6912685A61704700BFC4040020EF
:10066800024B9A69C0E9002198617047C4040020D0
:10067800044A93691968916110B15A68184610477D
:10068800704700BFC404002038B5054D0446AB6967
:100698000BB1A34200D338BD0120FFF7E9FFF6E70D
:1006A800C4040020C460056146618761C0F81C80ED
:1006B800C0F82090C0F824A0C0F828B0C0F82CD00A
:1006C80080ED0C8B80ED0E9B80ED10ABC0F808E040
:1006D800FFF7B6BF124D6C6908B50CB933F03CF89A
:1006E80060602046FFF7D0FF23686B612046C4682E
:1006F800056946698769D0F81C80D0F82090D0F841
:1007080024A0D0F828B0D0F82CD090ED0C8B90ED28
:100718000E9B90ED10ABD0F808E00120704700BFA9
:10072800C404002010B50021044600F0BDFA18B931
:1007380014B120460DF016FC10BD002100F0B4BA2B
:1007480010B50121044600F0AFFA18B914B12046DB
:100758000DF008FC10BDFFF7E5BF10B501220C46EF
:1007680000F0C0FB18B914B120460DF0FBFB10BD1A
:1007780000F0B8BB00F078BB2DE9F0432B4C86465F
:1007880000254FF0030CD4F89402002101310EEB40
:1007980001039A0803F00303825C5B0042FA03F347
:1007A80003F00303022BF1D0D4F8A002090100EBF7
:1007B8000E108E0889B300EB860603681A0729D144
:1007C800D4F8A0125A1AC2F3011E99424FEA92179E
:1007D8004FEA4E0E4FEA12121CD8D4F8A4129942CE
:1007E80018D9D4F8948218F8071041FA0EF303F0D8
:1007F80003030CFA0EF9012B41EA09010AD104EBB3
:10080800450E3F2D08F807109ABF0135AEF8B422FF
:10081800C4F8B0320430B042CFD12DB1013D04EB61
:100828004503B3F8B4E2AEE7BDE8F083C4040020A2
:1008380030B51C4CD4E9A753C01AC109C0F3021E35
:100848006B5C012202FA0EF223EA02036B54D4F81D
:10085800A82283094FEA101CB2EB901FD4F8940227
:1008680088BFC4F8A832C15C4FEA9C0E0CF00303A1
:1008780003255B0005FA03F321EA030100F80E10D3
:100888000CF1010CD4F894024FEA9C0E0CF003030F
:1008980010F80E105A0041FA02F202F00302022A7E
:1008A800E7D030BDC404002021F00F0138B50B1A81
:1008B800134A144C013BDB00A2FB03235B0A9A009A
:1008C800C4E9A5030546C4F8A4120732A1EB8311B5
:1008D80001331D4403EBD202C4F8A0120021C4F86E
:1008E8009C5228F09DFB002301214FF0FF32C4E900
:1008F800AA33C4E9CE322381A4F8341338BD00BF2B
:10090800F32C23FAC4040020024A1389013313810B
:10091800704700BFC4040020024A1389013B1381B9
:10092800704700BFC4040020024B1889003818BF64
:1009380001207047C4040020F8B51B4D2B89002204
:100948000133C5F838232B81C5F8B02205F1080416
:1009580005F5F47654F8043F1A071AD1D5F8A02201
:10096800981AC0F3011193424FEA901C4FEA4101D3
:100978004FEA10100DD3D5F8A422934209D2D5F826
:10098800947217F80C2042FA01F303F00303012BC9
:1009980002D0A642DED1F8BD03238B401A4307F8E4
:1009A8000C20FFF7E9FEF4E7C404002081B3F8B592
:1009B800184E0F46051F002455F8043F1A071AD190
:1009C800D6F8A022981AC0F3011C9A424FEA901157
:1009D8004FEA4C0C4FEA10100DD8D6F8A4229A42D0
:1009E80009D9D6F894E21EF8012042FA0CF303F074
:1009F8000303012B03D00134A742DDD1F8BD032343
:100A080003FA0CF31A430EF80120FFF7B5FEF2E7DC
:100A1800704700BFC40400202DE9F04F5F4DD5F8A2
:100A2800B032D5F8981283B0002B00F0AF8089005F
:100A38000026C5F8B062002900F0A1800027D5F88B
:100A48009402BB0807F00302C35C5200134103F091
:100A58000303032B0C467ED001378F42EFD3D5F822
:100A6800B032002BE5D1D5F8AC32A34280F08480B7
:100A78005C1C4FF0000BDC465F4644E0012B3FD185
:100A8800D5F89C224FEAD70A07F0070912F80A306E
:100A980043FA09FC1CF0010F02EBD70228D0D5F865
:100AA800A012380151F800C001EB0710BCF1000F8B
:100AB80013D06A4640F2A5310CF00EFC009B3BB106
:100AC8000DF0A4FCDDE900010DF078FC0DF0B4FC9C
:100AD800D5F89C2212F80A305244012101FA09F98A
:100AE80023EA09031370D5F8940210F8081040445B
:100AF800032303FA06F621EA060606704FF0010CF6
:100B08000137A7421ED2D5F894224FEA970807F07A
:100B1800030612F80810760041FA06F303F00303FF
:100B2800022B02EB97002DD0032BA7D10223B34051
:100B380021EA030102F80810BB460137A7424FF02B
:100B4800000CE0D32B890022013BC5E9AA2B2B819D
:100B580003B0BDE8F08F3846FFF70EFED5F89812BF
:100B6800013789008F420C46FFF469AFD5F8B032DF
:100B7800002B7FF45EAF76E7002C7FF47AAF4FF05E
:100B8800000BDFE7BCF1000FD6D0B1E7D5F8AC32E7
:100B98008C00A342FFF46CAFEEE700BFC404002052
:100BA800044B1A8900210132C3F8B0121A81FFF7E9
:100BB80033BF00BFC40400203A4B2DE9F04FD3E9FE
:100BC800A8420021121BD3E9A554C0E90111C0E9CC
:100BD8000311C0E9051102604FEA840C8B460E46EA
:100BE8000C460A46894688468E4615F809304FEA6B
:100BF800480843FA08F303F00303012B48D0022BFB
:100C080042D02BB90BF1010BC0F808B001361C46D5
:100C1800013294450DD04FEA920902F0030815F805
:100C280009304FEA480A43FA0AF39F07DDD403F074
:100C38000303012C13D0022C04D1476907F10108E2
:100C4800C0F814808769A74238BF8461944511D0E1
:100C5800012B21D04FEA920902F00308C5E7076982
:100C680007F101088769C0F81080A74238BF84617E
:100C78009445EDD1B64500D2C66009014FEA0B177D
:100C8800C0E90117BDE8F08F013141600134BFE7C9
:100C9800013141601C46BBE7B64501D2C660B64685
:100CA8000026D7E7C40400202DE9F84300F10F0619
:100CB800360953D06B4C2389002B4FD1B4F8342319
:100CC8000D46002A50D0D4E9CE1291424AD2D4F827
:100CD800A802D4F89812884238BF9E464DD2D4F85C
:100CE80094C201380139604461440022CCF1010703
:100CF80018E0013296424BD913F00C0F1ED1013285
:100D0800964240F2A08013F0300F1CD10132964277
:100D180040F29E803F2B1AD80132964240F29D80C5
:100D2800814218D007EB000810F8013F13F0030FB9
:100D3800DFD013F00C0F4FF00002E0D013F0300FAB
:100D48004FF00002E2D03F2B4FF00002E4D981427D
:100D58004FF00002E6D1BEF1000F0ED00023184676
:100D6800BDE8F88338F09AFDD4F8A802D4F89812B0
:100D78008842F3D24FF0010EB1E738F08FFDD4F876
:100D8800A802D4F8981281424FF0010EA7D8E5E7DF
:100D98004FEA8808A8EB0201012A01F1010704D1F2
:100DA80008F101039B08C4F8A832D4F8AC324345D3
:100DB80038BF4346B808C4F8AC3207F0030E1CF835
:100DC80000904FEA4E0E0123023103FA0EF343EA74
:100DD800090388450CF8003012D34FF0020E88083A
:100DE800D4F894C201F003031CF800905B000EFADB
:100DF80003F3013143EA090388450CF80030EED2C9
:100E0800D4F83833D4F8A0823344C4F8383308EB24
:100E1800071312011846002128F002F9EA074FEAE1
:100E2800071603469BD50022D4F89C0248F80620F2
:100E3800F9080122445C07F00707BA4022434254EC
:100E48001846BDE8F8834FEA880808F10108A1E7C9
:100E58004FEA880808F102089CE74FEA880808F179
:100E6800030897E7C4040020034B1A8912B908B194
:100E7800FFF7DEBC704700BFC4040020034610F033
:100E88000F001BD1164AD2F8A012994218D810B4F4
:100E9800D2F8A4429C420ED95B1AD2F894429A091D
:100EA800C3F30111A25C49000A4102F00302012ABE
:100EB8004FEA131305D05DF8044B704700207047C4
:100EC800704701301A18910802F00302615C520061
:100ED80041FA02F202F00302022AF2D00001EAE724
:100EE800C40400202DE9F84F0F460646002800F0FC
:100EF800C780704D2C89002900F08780002C40F0B5
:100F08008780D5F8A002D5F898C2301A030903F1F2
:100F1800010E0F31BEEB8C0F4FEA11114FEA8C0A0C
:100F280080F0B480D5F89492A4464FF001084FEAB7
:100F38009E040EF0030B19F804404FEA4B0B44FAD9
:100F48000BF404F00304022C66D02CB90CF1010C4C
:100F58000CEB08048C4261D3414552D063D3C4449E
:100F68008C451BD2D5F89C12C009095C002A4FD0C9
:100F780003F00703194101F001013846FFF794FE19
:100F88000446002844D04FEA0812314628F004F8F5
:100F98002B89BBBB3046FFF74BFC33E05C1843445E
:100FA8009C421FD9980803F0030219F800705200F8
:100FB8004FF0020C01330CFA02F23A439C4209F852
:100FC80000200FD99808D5F8947203F0030217F897
:100FD80000E052000CFA02F2013342EA0E029C428F
:100FE8003A54EFD1D5F8AC32A1EB08029C4238BF95
:100FF8001C46120106EB08100021C5F8AC4228F087
:101008000FF834462046BDE8F88F0CB9FFF710FCFE
:1010180000242046BDE8F88F08F101080EF1010E02
:10102800F24584D198E75C18A00804F0030719F882
:1010380000E07F004FF0030CA8EB01010CFA07F762
:101048002EEA0707012909F8007004F1010410D0FD
:1010580003EB080EA708D5F8943204F00302D95D13
:1010680052000CFA02F2013421EA02027445DA5500
:10107800F0D1D5F8A8328342C3D9C5F8A802C0E791
:1010880001463846BDE8F84FFFF70EBE0129B8D033
:1010980011B14FF0010865E7D5F89442800903F0D3
:1010A800030359000322235C8A4023EA02032354E2
:1010B800DFE700BFC404002010B58AB0044603A8C7
:1010C800FFF77AFDDDE90430039A009007492046CE
:1010D80000F096FFDDE9083206980549CDE90020C1
:1010E800079A204600F08CFF0AB010BD4C1A04087D
:1010F800701A04082DE9F84F4E4F4F49D7F8A0222F
:10110800804600F07DFFD7F8981289007AD0DFF882
:101118005C91DFF85CA1002515F03F064FEA950BBE
:1011280033D005F003067600D7F8942212F80B3076
:10113800334103F00303022B6CD0032B68D0012B3F
:1011480053D1D7F8A0222B01D258524564D03B4B3B
:101158009A4263D03A4B9A4264D03A4B9A425FD053
:10116800394B9A425CD0394B9A425DD0384B9A42FF
:101178005AD0384B9A425BD0374B9A4256D0374BAD
:101188009A4214BF68224D2230E0A94227D9D7F8E5
:10119800940210F80B20920721D12C4605E010F894
:1011A8000CC04CFA02F2930708D1013404F0030290
:1011B8008C424FEA940C4FEA4202F0D1621B7F2A1C
:1011C8000DD927499209404600F01AFFD7F89832FE
:1011D80024F03F05B5EB830F14D24FEA950B2A0193
:1011E8004946404600F00CFF9EE72E221D49404626
:1011F80000F006FFD7F898320135B5EB830F4FEAB8
:10120800830189D340461849BDE8F84F00F065BB13
:101218006D22EBE73D22E9E75422E7E74C22E5E7B8
:101228005322E3E74422E1E74122DFE74222DDE7F8
:101238004622DBE7C4040020B81A0408585B0408F7
:101248004053040830640408006404087C5004080F
:1012580008500408E857040884580408C45C0408C3
:10126800D41A0408F81A0408B41A0408F01A04086E
:1012780078650408064A0346506A1A684168C1F34B
:101288001E018A4202D3521A1A6070470068F5E7B5
:10129800C4040020014441F20553884204D398B2A3
:1012A800012838BF0120704710F8012B03EB4313C6
:1012B8005340F2E7034B044A5A620022C3F8EC2178
:1012C800704700BFC40400200C9404082DE9F047BF
:1012D80081460F46002943D0FFF7DCFF214B5C6AAB
:1012E80082460CB9204637E094F90730E668002BAF
:1012F80006F1FF364FF0000516DB013604F1180839
:10130800B54215D32468ECE706EB05084FEA580800
:1013180008F106033A4654F82310484627F0E0FE41
:101328000028CCBF45464646731B012BECD8E4E7A2
:10133800236933F815309A4510D163695B5D9F4284
:101348000CD158F825003A46494627F091FE28B9AD
:101358006068C0F31E002844BDE8F0870135CFE778
:101368000120F9E7C40400202DE9F84380460E4621
:10137800FFF7ACFF0246002840F09280FF2E03D909
:1013880049494A480CF02AF8494CD4F8EC01751C34
:1013980090B1D4E97C132B448B4229D92944FFF717
:1013A800E7F90746D8B90246D4F8F411D4F8EC01A5
:1013B800FFF7DEF9C4F8EC71802D2F4638BF80277F
:1013C8003846FFF7BAF9C4F8EC01D0BB2846FFF756
:1013D800B4F9C4F8EC0198BB28460CF0C3FDD4F866
:1013E800F0312B44C4F8F031D4F8EC31002BE3D0C1
:1013F800D4F8F431D4F8EC711F4441462B443246FA
:1014080038464FF00008C4F8F43127F0C5FD07F856
:10141800068031463846FFF73DFF636AD3E9025339
:10142800AB4281462AD36D000A2D38BF0A25C5EB89
:10143800C5001830FFF781F948B9C4F8EC01CBE7CB
:101448002F460023C4F8F071C4F8F431D0E700F156
:10145800180202EB8502616A026102EB45024261F1
:101468004A680160C968C0F80C80C2F31E020A44C9
:10147800416862F31E01C0E901156062626AD2E93F
:101488000331526921F81390D654991D626A42F8C3
:101498002170D1680131D1605268C2F31E021A442A
:1014A8001046BDE8F88300BFC0C60308DC54040832
:1014B800C404002010B5044627F0ECFD0146204680
:1014C800BDE81040FFF750BF07B5019001A8FFF72E
:1014D800D1FE019A036933F8120003B05DF804FBEA
:1014E80007B5019001A8FFF7C5FE019B4269D05CD2
:1014F80003B05DF804FB07B5019001A8FFF7BAFE39
:10150800019B063350F8230003B05DF804FB13B5C4
:10151800019001A80C46FFF7ADFE019B4269D25C21
:101528002260063350F8230002B010BD2DE9F843BD
:101538001D46002303600B6013602B60164BDFF819
:101548005C905C6A07468846164664B92B68326820
:1015580013442B60BDE8F883336812F8010B01339C
:10156800034433600DE04C45F0D03B6801333B60E9
:10157800E268D8F800301344C8F800306269E368BC
:10158800D1188A42E8D32046FFF778FC2B682468F4
:1015980003442B60D9E700BFC40400200C9404085E
:1015A8002DE9F8430D4B0E4F5C6ADFF83880DFF801
:1015B80038900CB1BC4201D1BDE8F883E36804F16E
:1015C800180505EB8306B54201D32468F1E755F801
:1015D800042B4146484600F013FDF4E7C4040020FC
:1015E8000C940408C5C603086C43040830B50023EE
:1015F800202511F8012F0AB9027030BD120600F13A
:10160800010420D513B12023037020460B78124A19
:1016180003F07F036BB9013A12F8013F13F0800F12
:10162800044600F101000BD003F07F03237001236F
:10163800DFE712F9014B002CFBDA013BDBB2E9E7EB
:1016480000F8013CE8E7012B04BF057020460B7841
:1016580000F8013B0223CCE7CCC6030838B5436841
:10166800194403689942054610D9037B1BB1084801
:1016780000210BF0B3FE01F1100424F00704083434
:1016880080682146FFF769F82C60A86038BD00BF64
:10169800DC54040870B504460E4611461546FFF79B
:1016A800DDFFD4E901302A461844314627F0A4FC6E
:1016B80063682B44636070BD70B54668B1420446E8
:1016C80028BF31460D460121FFF7C8FFA368681CF3
:1016D8005919721B184427F08FFC6368A0680133FE
:1016E8006360284470BD38B50129044638BF01211C
:1016F8000025084621606560FFF714F82573A0608F
:1017080038BD38B505460C460131FFF7ECFF6C6073
:1017180038BD0023C0E9013201230160037370471B
:1017280038B514460546FFF7DEFF024B25606360B7
:1017380038BD00BF9D160008037B10B5044613B9D9
:101748008068FFF717F80023A36010BD38B5054679
:101758001020FEF7E7FF29460446FFF7C4FF20469E
:1017680038BD10B5044648B1037B13B98068FFF74C
:1017780001F82046BDE81040FEF7FCBF10BD000090
:1017880038B5037B04460D461BB1074800210BF012
:1017980025FE016880682944FEF7DFFF2368A06002
:1017A8001D442560184438BDDC54040838B5044687
:1017B8000D46FFF753FFD4E901301D446560184416
:1017C80038BDD0E900239A4210B5044602D1012160
:1017D800FFF7D6FFD4E901320021D154A06810BD2B
:1017E80010B50C460121FFF7E1FF047010BD7F29F9
:1017F800F8B50C46CEB204D80121FFF7D7FF067022
:10180800F8BD06F03F06B1F5006FC1F3871546F045
:10181800800607D20221FFF7C9FF65F03F05057072
:101828004670EDE705F03F05B1F5803FC1F3073796
:1018380045F0800508D20321FFF7B8FF67F01F07BE
:10184800077045708670DBE70421FFF7AFFFA40C33
:1018580007F03F0764F00F0467F07F0704704770D4
:101868008570C670CCE738B5054608460C4627F0A3
:1018780011FC214602462846BDE83840FFF70ABF5A
:1018880010B51446FFF718FF047010BD10B51446C4
:10189800FFF712FF047010BD43688B422CBF591A22
:1018A80000214160704738B50446154662688A428F
:1018B800084603D929448A4201D8606038BDA36824
:1018C800521A1844194427F097FB63685B1B63603E
:1018D800F4E70846114628F045BB70B505460846AA
:1018E8000E4627F0D7FB044620B102466B682868ED
:1018F80031469847204670BD2DE9F74F8A469DF836
:10190800301091460D9A11F0DF0F0646A2EB09023E
:101918003FD030290CA9254F1ABF4FF001080F46B8
:101928004FF0100813F0800537D002EBD274651021
:10193800A2EB6404002D37DDAB46D84542467368F8
:101948003068A8BF5A46394601929847019AABEBCE
:10195800020BBBF1000FF0DCB9F1000F05D0736882
:1019680030684A46514698474D44002C0DDD2544C1
:10197800A045C146A8BFA146736830684A463946A3
:10198800A4EB09049847002CF2DC284603B0BDE814
:10199800F08F074F4FF01008C4E713F0010401D18E
:1019A8001546C7E71446D7E70025D5E7744304086A
:1019B800854304082DE9F04389B006460020119DAF
:1019C8009DF84880139F8DF80F000AB381421ADAF8
:1019D8002D228DF80F204942109A08ACA2F10A0076
:1019E8000DF11009B1FBF3FC03FB1C12092A8CBF93
:1019F8001218303204F8012D4C458E4661460ED03F
:101A08007345EFD90BE0A80727D52B228DF80F20B7
:101A18000029E1D130238DF81F300DF11F0415F096
:101A280040099DF80F301CD023B30122CDE9008274
:101A38002B460DF10F013046FFF75EFF013F81464F
:101A480008AACDE900872B46121B21463046FFF72E
:101A580053FF484409B0BDE8F0836A07D8D520226F
:101A6800D4E7002BECD004AA9442E9D904F8013C4D
:101A7800013CE5E79946E3E72DE9F04F93B081464D
:101A88001E46C8079DF874301C9D0793DDE91E8724
:101A98000C4692460BD4A10703D121687F4B99428B
:101AA80005D020460DF0EEFA440044F0010415F08C
:101AB800810306D1079A302A03D1B845B8BFB84682
:101AC8001F46204610F037FD00280DF1280B18DBC3
:101AD800AA0712D52B238DF828300DF12903E80623
:101AE800F6B21CD5BAF1020F0DD11946302001F813
:101AF800020B701C58700B4611E06B0701D52023B0
:101B0800E9E75B46EBE7BAF1080F62D130211970BB
:101B1800A90545BF06F10E015970013302330021B2
:101B280015F0200F1970A3EB0B03069314BF2C2399
:101B38000B46012F0EA8C8BF45F040050B9015F0C5
:101B480040024FF01000CDE90C01CDE902638DF899
:101B58002710059247D0CDE900A123460DAA0CA96C
:101B68000BA810F0B5FB03782D2B824606D18DF813
:101B780027300D9B013B00F1010A0D93012F40F323
:101B880085800D9C059BBC42B8BF3C462BB19DF897
:101B9800273003B10134069B1C44A0452EDD15F007
:101BA8000103A8EB04042AD126461C4625F00105AA
:101BB8004EB1202300930023019639491A4648461E
:101BC800FFF79AFE0646059B002B5CD1302307934E
:101BD8003AE0BAF1100FA2D11946302001F8020BF1
:101BE80006F1170086E70AABCDE900A30DAA234644
:101BF8000CA90BA810F06CFB8246BFE70024002656
:101C0800D4E7002426469DF827305BB10023012243
:101C1800CDE900320DF127014846FFF76DFE08F1C6
:101C2800FF380644069B63B100230122CDE9003248
:101C38005946069A4846FFF75FFE069B0644A8EBFE
:101C48000308012FD8BF4746079B00930D9A0197B9
:101C58002B4651464846FFF74FFE06444CB1202319
:101C6800009300230E4901941A464846FFF744FEA4
:101C780006440B980EAB984201D0FEF77BFD304628
:101C880013B0BDE8F08F30230793BCE7059B002B0A
:101C9800B7D11C461E464746D6E700BF405A04083F
:101CA800C10E04082DE9F0431646B2078BB09846DA
:101CB8005ABFC6F380035B012B2300930A46139B8C
:101CC800DDF848900746202102A80AF07FFAF305BC
:101CD800044610D5431C1F2B0DD800F128020DEB2C
:101CE8000204252204F8202C03F128026A4400216A
:101CF80002F8201C1C4616F040051DD09DF808303F
:101D08002F2B4FF0000319D8012202A9CDE9003288
:101D18003846FFF7F1FD09F1FF390546013C0DF1A1
:101D28000901CDE90089334622463846FFF7E4FD2C
:101D380028440BB0BDE8F08302A9F2E702A91D46CA
:101D4800EFE700002DE9F04F824689B014460026DF
:101D58000B461D4613F8012B82BBA94231D30B78E1
:101D6800002B00F04581013120234FF000080A467E
:101D780012F8015B3DB12B2D39D02CD8202D39D04C
:101D8800212D3AD000250F4611F8012BA2F1300081
:101D9800092835D92E2A5ED17A782A2A36D0002207
:101DA8000F4611F8010BA0F1300CBCF1090F30D827
:101DB8000A2707FB020BABF13002F1E7252AC8D14D
:101DC800CBE76F1ADAF80430DAF800003A46984799
:101DD8003E442946C3E72D2D05D0302DD2D148F0F9
:101DE80040082B4601E048F001081146BFE748F0DB
:101DF8000208FAE748F00408F7E748F00808F4E7AB
:101E08000A2000FB0522A2F13005BCE754F8042B98
:101E1800023722EAE27B3A786C2A08BF013797F842
:101E28000090B9F1000F00F0E380B9F1780F09D8FC
:101E3800B9F1570F12D8B9F1470F59D8B9F1440F72
:101E480000F2C380DAF80430DAF8000001223946DB
:101E58009847013663E04FF0FF3BDCE7A9F15802F1
:101E6800202AEFD801A151F822F000BFB11F0008C5
:101E78004D1E00084D1E00084D1E00084D1E00088E
:101E88004D1E00084D1E00084D1E00084D1E00087E
:101E98004D1E00080F1F0008311F0008951F00087D
:101EA800D31F0008D31F0008D31F00084D1E0008C9
:101EB8004D1E00084D1E00084D1E00084D1E00084E
:101EC8004D1E00084D1E00084D1E0008FF1E00088C
:101ED800451F00084D1E00086F1F00084D1E000812
:101EE800B11F00084D1E00084D1E0008B11F000854
:101EF800B9F1500FA6D1CDE9023561230093CDF891
:101F0800048010235FE054F8042BCDE900354346E4
:101F18003AB1394904225046FFF7EEFC0644791CD1
:101F280016E736490522F6E754F8042B8DF81C20ED
:101F3800CDE900350122434607A9ECE707A954F883
:101F4800040B0593FFF7E3FABBF1FF3F059B01463E
:101F580004D0079A934538BFCDF81CB0CDE90035B9
:101F6800079A4346D7E754F8049B0593484627F059
:101F780091F8BBF1FF3F059B024602D0584528BFA8
:101F88005A46CDE9003549464346C4E7CDE902350E
:101F980061230093CDF804800A23012254F8041B1E
:101FA8005046FFF707FDB9E729F00F0209F10101D3
:101FB8000F3A01F00601D2B2CDE90235CDF804801E
:101FC8000092C1F110030022E8E7073424F0070467
:101FD800F4E8020105933AF05BF9CDE9005B00EE05
:101FE800100A059B424649465046FFF75BFE95E7B7
:101FF800304609B0BDE8F08F4DF2030852F20308ED
:102008000EB403B503AA52F8041B0192FFF79AFE17
:1020180002B05DF804EB03B070470346007893F90B
:102028000020002A0ADA00F07F004022104206D180
:1020380013F8012F02F0C001802904D0704720EA6C
:1020480002005208F2E702F03F0242EA8010EFE78E
:10205800431C18460133027802F0C002802AF8D0E7
:10206800704703460020994200D8704711F8012DA7
:1020780002F0C002802A18BF0130F4E70346014489
:10208800002099421A4600D87047127802F0C00220
:10209800802A03F1010318BF0130F2E77F289DBFB2
:1020A800024B185CC0F340000020704796430408B8
:1020B8007F289DBF024B185CC0F3C000002070470A
:1020C800964304087F289DBF024B185CC0F380002C
:1020D80000207047964304087F289DBF024B185C78
:1020E800C0F3801000207047964304087F2809D861
:1020F800064B1B5C13F00C0F06D1A0F15F0358428E
:1021080058417047002070470120704796430408E3
:102118007F289DBF024B185CC0F300100020704759
:10212800964304087F289DBF024B185CC0F34010FB
:10213800002070479643040808B50246FFF7E8FFF9
:1021480000B12032104608BD08B50246FFF7EAFF85
:1021580000B1203A104608BD3038092884BF20F065
:1021680020000738704710B502460144E5240020D6
:10217800914203D8B0FA80F0400917E012F8013B09
:1021880030B103F0C003802B11D10138C0B2EFE7A2
:10219800BF2B09D9F72B09D8DB0803F0060344FA4B
:1021A80003F303F00300E3E71B06E1D510BD0020AD
:1021B800FCE7023981420B4603D31A880239002A08
:1021C800F8D00233181A40107047B2EB131FF0B55D
:1021D80004464FEA131519D9501B01EB450103F0CA
:1021E8000F03054626460F4635B904EB400434F87C
:1021F800023C03B90138F0BD012D31F8022B18BF9C
:102208003A68DA4026F8022B013DECE70020F2E7B5
:10221800F0B5059F0024D21B2546A7420FD100EB3D
:10222800470601EB470100239A4213D106EB42030C
:1022380015B126F812500233181A4010F0BD31F8C3
:10224800146033F814C06644354420F814502D0C3B
:102258000134E2E731F813402C4426F81340250CEA
:102268000133E1E7F0B40E4604990025521A2C46D2
:10227800A9420BD100EB410506EB410600239A4227
:102288000FD105EB4201F0BCFFF793BF36F815708C
:102298003C4433F81570E41B20F81540241401352C
:1022A800E6E736F813100C4425F8134024140133DC
:1022B800E5E72DE9F043079CDDF828E0DDE908763D
:1022C8000239154684464FF6FF78A4EB020955B942
:1022D80000EB42011FB1012320F812300231BDE8A2
:1022E800F043FFF766BF31F8024F013D44442644EE
:1022F80005EB0904A5422ABF33F8024B4FF6FF74D9
:102308004444744486EA040E17FA8EF72CF8027BCC
:102318004FEA144E360C3F0CD9E738B5022904466B
:10232800806838BF02210D4618B12368B1EB930FBE
:1023380007D96900FEF711FA2368A06065F39F03C7
:10234800236038BD38B504460C20FEF7EBF9236846
:102358002278054602F00102C3F39D0023F003032F
:1023680013432B6063686B604000FEF7DBF9A860DD
:102378002268A168C2F39D02520026F00DFE28468D
:1023880038BD994210B511D313D800EB410002EBC8
:10239800410209B9084610BD30F8023D32F8024D35
:1023A8001B1B002B02DB04D10139F2E74FF0FF3091
:1023B800F1E70120EFE710B5044638B18068FEF771
:1023C800D9F92046BDE81040FEF7D4B910BD70B564
:1023D80005460C460221FFF7A0FF002C2B78B4BF5E
:1023E8000122002262F30003AA682B70B4BF614285
:1023F8002146012388B2090C14461E4622F8020B16
:1024080003F10103F6D16E60208070BD0023C0E99E
:1024180000338360704728B103789B0702D4806833
:10242800FEF7A8B9704738B504460D464968FFF766
:1024380074FF2A782378A06862F3000323706A681F
:102448006260A9685200BDE8384026F0A5BD0A467A
:1024580029B90178426062F3000101707047FFF703
:10246800B6BF08B5FFF7D2FFBDE80840FFF7EFBFDA
:10247800920042F0020210B402600022C0E9012179
:102488005DF8044B1946FFF7E2BFF8B59DF81870E0
:1024980014461D4604210646FFF73FFF22462B46F9
:1024A80027B1002D0CDA624265EB4503317867F3FA
:1024B800000131700021716052EA030102D1F8BDB8
:1024C8000027F3E7D6E901104C1C746020F81120AE
:1024D800120C42EA03421B0CEEE72DE9F3418DEDA5
:1024E800010A019D0378EA0F62F300030370C5F344
:1024F8000F4313F4FF4380460BD198F8003023F0C4
:10250800010388F800300023C8F8043002B0BDE8A1
:10251800F081B3F5FF4FF0D0C5F3C754A4F17F069F
:10252800002EEADB05D1012102B0BDE8F041FFF73A
:102538004EBF162EC5F31605A4F16F07D8BFC6F116
:10254800170645F400054FEA2717D5BFF540963C16
:1025580000260936D4BF344624113946C8BF06F0D0
:102568000F06FFF7DAFEC8F804702CB1D8F8080097
:102578006200002126F054FD4EB1D8F8083005FA63
:1025880006F223F81420C6F11006F5400134A742DC
:10259800BCD0D8F8083023F814502D0CF6E72DE9F4
:1025A800F84304468F18C2F35B020D46511C984647
:1025B800089EFFF7B2FE237868F300032370AC4649
:1025C80000221FFA86FEBC456046626002D3401BAB
:1025D800BDE8F8830178A1F13003092B0CF1010C57
:1025E80005D9A1F14103192B12D8A1F13703B34240
:1025F800EDD2A06890468146B8F1000F0FD100EBEC
:10260800420113B120F812300231091A4A10DAE7F0
:10261800A1F16103192BDAD8A1F15703E7E7B9F85B
:1026280000100EFB013329F8023B08F1FF381B0CA0
:10263800E2E7F8B5044615461E4641B3531E1E444C
:102648004FF0FF37E9000F3109092046FFF765FE13
:102658002378002123F0010323706160CDB10F2995
:102668004FF000030BDC32788A401343013D9BB2E4
:1026780001F108013E4402D00F29F4DD10216268FF
:10268800501C6060A068103920F81230E6E7012776
:10269800D8E7D4E9011000EB4101FFF78AFD60603B
:1026A800F8BD38B505780B7805F0010203F0010391
:1026B8000446981A08D1D1E90132D4E90110FFF78C
:1026C80060FEEB0748BF404238BD884210B504465B
:1026D80001D0FFF7A8FE237823F00103237010BD73
:1026E800884210B5044601D0FFF79DFE63683BB1F0
:1026F8002378C3F3000282F0010262F3000323701F
:1027080010BD88421FB5044601D0FFF78CFE6268F1
:1027180062B901212046FFF700FEA2680123138059
:102728006360237843F00103237010E02378D9070E
:102738000FD523F00103237001230093A168ADF89E
:102748000E3008460DF10E03FFF78CFD606004B0F3
:1027580010BD511C2046FFF7E0FD01230093D4E98A
:102768000121ADF80E3008460DF10E03FFF750FDBC
:102778006060D6E74B682DE9F04705460E461446DB
:1027880003B12AB931462846BDE8F047FFF74BBEEA
:1027980002F10F014FEA111803EB1111FFF7BDFD0C
:1027A800D6E9012308EB0207A96807F1004014F0F5
:1027B8000F0400F1FF3008BF10244FEA400901EB75
:1027C800400003EB4203114686464FF0000CC4F16B
:1027D800100409BB6FF001035A4383182CFA04FC58
:1027E800C8F1010820F802C003EB48034FEA480289
:1027F8001846524226F014FC09F1020903464B44DC
:1028080017B133F8022D9AB16F6032782B7862F3E2
:1028180000032B70BDE8F08733F802AD4AEA0C0CD0
:102828002CFA04FA2EF802A94FEA0C4C0139D0E729
:10283800013FE5E72DE9FF410D4649680646144684
:1028480001B132B92946304604B0BDE8F041FFF77E
:10285800EABDFFF762FDB768D5F808806A682346C5
:1028680041463846FFF7B1FC70602978337861F348
:1028780000033370DB0702460AD500236968ADF808
:102888000E302009994201D0834204D181420AD8EE
:1028980004B0BDE8F08138F813509DB1012381429E
:1028A800ADF80E3012D904F00F04012338F81010D7
:1028B80003FA04F4013C214206D1BDF80E30002B86
:1028C800E6D003E00133DDE7ADF80E30012312B99D
:1028D8003B807360DCE7009339460DF10E03384600
:1028E800FFF796FC7060D3E773B514460D46D2E93E
:1028F80001320646D1E90110FFF743FD0028A2BFC7
:1029080023462C461D4623782A7861685340DB0706
:102918001AD401313046FFF700FD6B680093D4E903
:102928000121AB68B068FFF773FC706023783278D8
:10293800C3F3000300280CBF002303F0010363F373
:102948000002327002B070BD3046FFF7E6FC6B68DB
:102958000093D4E90121AB68B068FFF783FCE4E792
:10296800F7B514460F46D2E901320546D1E9011000
:10297800FFF707FD0028A2BF23463C461F462378E1
:102988003A78616883EA0203ACBF00260126DB07B8
:1029980019D501312846FFF7C0FC7B680093D4E9BC
:1029A8000121BB68A868FFF733FC686028B1237869
:1029B80003F001000EB180F001002B7860F30003F2
:1029C8002B7003B0F0BD2846FFF7A7FC7B68009387
:1029D800D4E90121BB68A868FFF744FCE5E72DE9C5
:1029E800F04F15464A686B689A4224BF2B460D463D
:1029F8000C4628BF1C462B786968DB0785B006465D
:102A080022D4237813F001071ED1FFF786FCD4E9FE
:102A1800011CB068AD683B4699420CD100EB4101FE
:102A2800FFF7C7FB00237060327863F3000232704F
:102A380005B0BDE8F08F35F813203CF8134022406C
:102A480020F813200133E7E701313046FFF765FC32
:102A58002F782378D5F804C0B068A26887EA030104
:102A6800C94301F0010E41F3000189B207F00108E2
:102A780047F300070191B9B20291A968A1F1020BCD
:102A8800616803F0010943F300039BB2A1EB0C0159
:102A980000936746824603918FB900EB4C01BEF163
:102AA800000F03D0012320F81C300231FFF781FB0F
:102AB800706022782B78C2F300021340B4E73BF829
:102AC800021F029B5940039B013F8844D919B94210
:102AD8009BBF32F8021B009B009959408944019B17
:102AE80008EA090159401EFA81F12AF8021B4FEA47
:102AF80019494FEA18484FEA114ECDE72DE9F84F2A
:102B080014464A6863689A4224BF23460C460D4619
:102B180028BF1D4623786168DB07064632D42A7829
:102B280012F001072ED1FFF7F8FBD5E9013EA168A5
:102B38006468D6F808C0E41A3A46934213D101EB08
:102B4800430100220CEB4303944215D103EB4403E9
:102B5800A3EB0C03581000223378706062F3000373
:102B68003370BDE8F88F31F812003EF81250284350
:102B78002CF812000132E0E731F8120023F81200B5
:102B88000132E1E701313046FFF7C7FB22782B78A5
:102B98006168B068A468D5E901E702F0010803F0AC
:102BA800010942F3000243F3000392B29BB2A4F17D
:102BB800020C0D4683464FF0010AAEEB010E2DB90B
:102BC80000EB4101FFF7F5FA0122C5E73CF8024F97
:102BD800013D5440A0440EEB0504A5422ABF37F836
:102BE800024B1C465C40A14448EA0904E4431AFA33
:102BF80084F42BF8024B4FEA19494FEA18484FEA78
:102C0800144ADCE7F0B514464A6863689A4228BF5C
:102C180023460D4624BF0C461D4627782B7861684D
:102C28005F4017F0010785B006463BD1FFF775FBFB
:102C3800237813F0010329D1D5E9015C6268B068F3
:102C4800A768521B9D4212D100EB450107EB4507CF
:102C580000239A4214D101EB4201FFF7AAFA002798
:102C68003378706067F30003337005B0F0BD37F850
:102C780013103CF81340614020F813100133E1E7CA
:102C880037F8134021F813400133E2E7CDE9027722
:102C980001976B680093D4E90121AB68B068FFF72E
:102CA80008FBDCE70131FFF738FB2B78DB4303F047
:102CB800010303932378DB4303F001030127029305
:102CC80001976B680093D4E90121AB68B068FFF7FE
:102CD800F0FAC5E72DE9F04F4B6885B004460E467B
:102CE80015460BB1536843B9237823F001032370C9
:102CF8000023636005B0BDE8F08F81422DD1FFF756
:102D080021FBA542064607462ED06B68716820460F
:102D18001944FFF702FB2268A068C2F39D02520023
:102D2800002126F07DF9B368D4F808E0D6F80490BD
:102D38000193AB68029300226B6803930EEB49087A
:102D4800F4461146039B934233D0DDF804B0CDF826
:102D58000090ACF1020000231AE0824206D1FFF78E
:102D6800F1FA05460746D0E70546CEE70027CCE747
:102D780030F802AF53441946029B3BF802AB33F8D4
:102D8800123003FB0A130099038001391B0C0091D0
:102D980000990029ECD14146881C13B1A8F80030ED
:102DA8000146A1EB0E0149100CF1020C01328046DC
:102DB800C8E761602A78337853402278384663F34D
:102DC8000002227005B0BDE8F04FFFF7F4BA4B6877
:102DD80070B50546144613B11378DA0706D52B7873
:102DE80023F001032B7000236B6070BD636823B967
:102DF800BDE870400121FFF7EABA0846FFF7A2FADA
:102E080006462046FFF79EFA012104462846FFF7AA
:102E1800DEFA636883B1A3681B88DB0704D53246F2
:102E280029462846FFF756FFD4E901210123084621
:102E3800FFF7CBF9606038B93046FFF7BCFA204697
:102E4800BDE87040FFF7B7BA324631463046FFF763
:102E580041FFDEE72DE9F04F0C4651688FB09346ED
:102E6800013105460393FFF758FADBF80420A868F8
:102E780001325200002126F0D3F82B78002623F0E7
:102E880001032B706E60DBF8041020460131FFF758
:102E980044FA59462046FFF7C6FA039BD4F808902F
:102EA800D4F80480D3E901370293AB6804933A4617
:102EB800029B41464846FFF764FA002835D1049A38
:102EC8006060012313806B6023786168C3F300029C
:102ED80000290CBF002202F0010262F30003039AEA
:102EE80023709BF8003012785340DB0740F1FC80D8
:102EF8006B682A78003B18BF012363F300022A702D
:102F0800002900F0F1800BA84FF0FF31FFF7A9FA74
:102F18000BAA29462846FFF7E7FC039A21462046D4
:102F28000FB0BDE8F04FFFF7DFBC01DA6E60CBE70A
:102F3800029B03F10042013A4FEA420A37F81210A5
:102F480033460E0403F101004ED59BB209EB48014C
:102F58004FF0000C08F10100C3F1100629F818C061
:102F6800019160600231CE4605968E4540D337F810
:102F780012209A400592029A012A09D907EB0A02FF
:102F8800C3F1100132F8022CCA400599114305918A
:102F9800029A801A6860049A00F10040013802EB36
:102FA800400207920AF102020992BA1E0892D4F866
:102FB80004A0029A524529D30AF1004A0AF1FF3ABD
:102FC80009EB4A0A0022C3F11000D14573D96FF00A
:102FD80000416B682BB104985A1830F81220002A67
:102FE80073D06FF0004175E0490089B20346A8E745
:102FF800BEF8008008FA03F64CEA060C059E2EF887
:1030080002CB28FA06F81FFA88FCAEE7019A019865
:10301800118832F8022C42EA01420599B2FBF1F21A
:103028000999411A06910899069F00200E4686467E
:103038000199B9420DD809880844A8BB079921F815
:103048000229019A0791023A01920AF1FF3262605D
:10305800ADE736F8021FB7F80080994041EA1E4EE6
:103068001FFA8EF1514318FA80F81FFA81FC090CF7
:10307800A8EB0C0CC1EB204127F802CB01EB2C404C
:10308800D6E738F8021F994041EA1E4EBCF80010F6
:10309800394411FA8EF12CF8021B0F0C0199614585
:1030A800EFD83844013AC8E70027DDF82080DDF87A
:1030B80018C0BE46F2E7BAF8001041FA03F63243E8
:1030C80081402AF802298AB27FE7013B6B6080E7DA
:1030D800013B63606368002B3FF4F6AE5A1839F879
:1030E8001220002AF4D0EFE60FB0BDE8F08FF0B55B
:1030F8001F464B6885B004460D4616464BB11378FB
:10310800DA0706D47B68012B0BD1BB681B88012B1F
:1031180007D1237823F0010323700023636005B0EF
:10312800F0BD01212046FFF752F97368002BF6D055
:103138002846FFF707F905463046FFF703F9064624
:1031480001A8FFF763F97368B3B1B3681B88DB079D
:103158000AD52A4621462046FFF7BCFD3B462246B3
:10316800214601A8FFF776FED6E90121012308468A
:10317800FFF72BF8706058B901A8FFF74CF92846FB
:10318800FFF719F9304605B0BDE8F040FFF713B96D
:103198002A4629462846FFF79DFD3B462A462946EA
:1031A80001A8FFF757FECEE710B5D0E90121034685
:1031B80001EB42020020914204D31B78DB0748BF91
:1031C800404210BD32F8024D44EA0040F3E730B502
:1031D800D0E90124002304EB4202944206D302788A
:1031E800D20748BF5B420B60012030BDB3F5004FEA
:1031F80004D232F8025D45EA0343EEE70020F4E723
:103208002DE9F74FDDF830C0019206460F4609B3A5
:103218000CEB0300D6E90189012400211A46A246D5
:103228008E46B8F1000F17D10199002948D0002A1D
:1032380046D1002B44D0002F3ED09CF800302CB152
:103248003478DB4384EAD31404F00104204603B045
:10325800BDE8F08F6046DDE739F8025B0EF1100E2D
:1032680045EA0141BEF1070F02DC08F1FF38D8E753
:1032780096F800B08DB21BF0010F1FBFED435AFA4C
:1032880085FA1FFA8AF5CAF3072A5AB944B1EDB28A
:10329800B5FA85F56D092C46AEF1080E090AE1E785
:1032A8001546F8E7EDB227B100F8015C0138013A9C
:1032B800F2E700F8015BFAE7634413F8013CBEE764
:1032C800337813F0010F14BFFF210021002F18BF1E
:1032D800604625F0A5FEB9E7D0E901329FED0C0A5A
:1032E8009FED0C7A02EB43039A4205D30378DB0780
:1032F80048BFB1EE400A704733F8021D07EE901A36
:10330800F8EEE77AE0EE077AB0EE670AECE700BF7E
:1033180000000000000080472DE9F74F44680D9F2A
:103328001E469DF83030019381468A461546A4B959
:103338008AB1551E3A4615F8011F134641B9302285
:103348001A70002203F8012FD81B03B0BDE8F08FD4
:1033580002F8011BEFE73B46F1E764002046FDF762
:10336800E1F922468046D9F8081025F015FEBB463B
:103378003B4608EB0402A6F13A00941E0026A0453D
:10338800A44629D93036392E5C4688BF361804F849
:10339800016B4646B242B44629D84046FDF7EAF9E1
:1033A8005DB1284625F076FE2A1859461346AB42E9
:1033B8002FD8954288BF0020044499F80030DB07D5
:1033C80044BF2D2304F8013B3B46621E9A4225D890
:1033D80000232370E01BB8E7BCF800C04CEA06469F
:1033E800B6FBFAFC24F802C90AFB1C66C7E7BCF85E
:1033F800001002360029CDD0019941B1E61A032EFA
:1034080001BF019B8BF801300BF102042346A34650
:10341800B3E713F8016D01F8016FC8E71978107860
:1034280003F8010B02F80119D0E7D0E90232934200
:103438003DBF5A1C826018784FF0FF307047036810
:1034480010B5044613B14068FDF794F92046BDE86D
:103458001040FDF78FB90000F8B5054610200C465E
:103468001F461646FDF75EF9054B8460C0E90074F7
:103478003444C4606B60034B2860AB60F8BD00BF88
:10348800333400084734000802690A2A10B5044694
:1034980035D1836A013383620123A269E3626369D8
:1034A8006261226F2361002A31D0616E8A423FBF78
:1034B800501CA16E20678A5C28BF0022A2613BB91C
:1034C800E2692261226A6261626AA26163662367B5
:1034D800D4E905230D2A07D10A229342626103D158
:1034E800D4E901039847A061A369013306D1636950
:1034F8005A1C03D00A2B1CBF0A23A36110BDC36A40
:10350800092A04BF073323F007030133C5E7D4E9C9
:1035180001039847A061DBE701692729024601D02A
:10352800222912D1012024E05369272BFAD0222B1B
:10353800F8D0722914D1662B16D190692728F1D0BA
:10354800A0F12203584258417047A1F162001328A4
:1035580004D8084B034113F00100E5D00020704760
:10356800662904D1722B00E0622B02D1E5E76229BB
:10357800F8D07047EEFFF6FF38B504460D462069CF
:10358800431C1AD00A2806D10DB1636BB3B120468B
:10359800FFF77AFFF3E7FEF781FD0028F7D12369EB
:1035A800232B08D12046FFF76FFF23695A1CE6D06A
:1035B8000A2BF7D1E3E75C2B02D00025284638BD5B
:1035C80063690A2BF9D12046FFF75EFFDFE70000A9
:1035D8002DE9F04F436E85B00446A3B1036F93B94C
:1035E80029216030FEF7FCF82369E36163692362EF
:1035F800A3696362A36E1A7822615A7862619B7824
:10360800A361032323670023636501212046FFF795
:10361800B3FF266BA36A6364002EE36AA36407DA28
:10362800072384F84C300136266305B0BDE8F08FD7
:1036380004D0062384F84C30013EF5E7002837D043
:1036480031462046FFF798FF052384F84C30D4E92B
:103658000F306FF000429918E56A30F81110013DFB
:103668008D42E2D019D9A16B8B4207D308314900AA
:10367800FDF773F8A36B20640833A363D4E90F3212
:10368800591CE16322F81350236B01332363CCE701
:10369800013BE363236B013B2363E36B991830F829
:1036A80011108D42F4D3C0D0022384F84C30BCE70B
:1036B80025696F1C02D184F84C00B6E72046FFF755
:1036C8002BFF0746002800F0C28184F84C6023696C
:1036D800722B6AD058D8622B5DD0662B73D0B14656
:1036E8000025A8460B2394F84C20002A78D184F8AA
:1036F8004C30B9F1000F08D02046FFF7C5FEB9F1EC
:10370800020F02D12046FFF7BFFE23692046222B75
:103718000CBF4FF0220A4FF0270AFFF7B5FE2369C6
:10372800534560D163699A455DD12046FFF7ACFEE9
:103738002046FFF7A9FE4FF0030935B1636E23B9A0
:10374800954904F16000FEF78EF804F16002002349
:1037580001922169481C00F07481B9F1010F02D16E
:103768000A2900F06E814B4540D3194604F15000F8
:10377800FEF792F801212046FFF7FEFE2046FFF7EC
:10378800CBFE0028A3D150E7A3F17505D5F10009B8
:1037980049EB0509A4E76369722B4FF000051BD0BC
:1037A800A8464FF001090C239DE76369622B12D0EC
:1037B800662B0CBF3D460025B8460CBF4FF00209EA
:1037C8004FF001098EE76369722B3D460CBFB8467E
:1037D8004FF00008F1E70025B8464FF00209E2E78C
:1037E8009A4286D021E74FF00109A6E78A456DD1B4
:1037F8000133514604F150000293FDF7F8FF029B94
:1038080002932046FFF740FE029BA2E72046029162
:10381800FFF73AFE23697B2B10D104F1500002997F
:10382800FDF7DEFF2046FFF72FFE7B2104F1500055
:10383800FDF7D6FF21697B29E8D049E001982821C6
:10384800FDF7CEFFD4F864B000222169481C0FD0E0
:1038580042BB3A290CD07D290AD0212922D160699E
:103868007238012823D8A0693A2801D07D281ED1B2
:10387800D4E91921881810F8010C3D2809D1A2EBC8
:103888000B02594404F15000FDF704FF636E013B3D
:10389800636601982921FDF7A3FF01982C21FDF704
:1038A8009FFFC2E721F020005B280AD1013201986E
:1038B8000292C9B2FDF794FF2046FFF7E5FD029A90
:1038C800C3E75D2808BF02F1FF32F0E7002DB2D14F
:1038D8005C2940F0B08020460291FFF7D5FDD4F86E
:1038E80010B00299B8F1000F05D004F15000FDF7AF
:1038F8007EFF594674E0BBF1780F09D8BBF15B0F26
:1039080008D8BBF1220F44D023D8BBF10A0F69D0E5
:103918005C21EAE7ABF15C021C2A67D8DFE802F019
:10392800396666666685266666662E6666666666B5
:1039380066662A6666660F6628302C6664000D2166
:1039480094F84C300B2B72D104F15000FDF74FFF67
:1039580048E0BBF1550F13D0DAD8BBF1270F18D0C8
:10396800BBF14E0F42D10D480AF0EEFC0821E7E703
:103978000921E5E70A21E3E70B21E1E70C21DFE76D
:1039880094F84C200C2A0BD15C2104F15000FDF76F
:103998002EFF5946D4E700BF9DF20308A6F203089C
:1039A800BBF1750F14BF0823042303F1FF3B00216B
:1039B80020460291FFF768FD226903921046FEF740
:1039C8008BFB002800F057810299039A09011046E1
:1039D8000291FEF7C1FB0299BBF1010B0144E7D24A
:1039E8004B1C1BD100230BE70223DEE7ABF13001B0
:1039F80007298DD84FF0030B08E020460291FFF706
:103A080043FD22690299303A02EBC1016269303AFA
:103A1800072AE5D8BBF1010BEFD1E1E7B1F5881F23
:103A28008ED3012384F84C30DCE7072188E7FF298F
:103A3800F7D80C2BF5D1C9B204F15000FDF7D0FE30
:103A4800D0E74B453CBF032284F84C208DE628463E
:103A5800FEF72EFBD8B920695F2818D07F2816D822
:103A6800FEF730FB002856D123692E2B4ED0844D0B
:103A780000262F781FB12369BB4240F0A48020465E
:103A8800FFF702FD002F40F0A68001230DE6082372
:103A980084F84C3004F15005217C2846FDF7A0FE3F
:103AA8002046FFF7F1FC2069421C1BD12846FDF790
:103AB80088FE744F0646002557F8041B304625F04B
:103AC800F7FA00281CD10E35EDB2112D84F84C50B0
:103AD8007FF4ABAD6C4BD3F8F831002B14BF0E2339
:103AE8001023E2E5FEF7E4FA0028D5D120695F2823
:103AF800D2D07F28D0D8FEF7E5FA0028CCD1D5E778
:103B0800FFF693AD0135242DD6D18EE56069FEF719
:103B1800D9FA0028ABD021692E292AD10A2384F8A2
:103B28004C30002504F150063046FDF760FE204673
:103B3800FFF7AAFC0A272069431C3FF476AD4DBB6A
:103B480020F02003452B25D16521304684F84C70A0
:103B5800FDF74DFE2046FFF797FC21692B2901D080
:103B68002D29E8D13046FDF742FE2046FFF78CFCB0
:103B7800E1E70923302984F84C30D2D1636943F056
:103B88002003623B162BCCD8404DDD4015F00105D3
:103B9800C8D1C6E7FEF78CFA28B121692E290DD1C4
:103BA80084F84C70DEE72069FEF78CFA0028F4D11F
:103BB80023692E2BF1D05F2BD7D036E521F02003D7
:103BC8004A2BCFD1ECE7652F01D0632F00D1013507
:103BD800013601354DE7212F08D123693D2B7FF4AC
:103BE80054AF2046FFF750FC39235EE52E2F0FD146
:103BF80023692E2B02D163692E2B01D05C2354E557
:103C08002046FFF741FC2046FFF73EFC0D234CE51C
:103C18000335334615F8027C632F18D0652F16D06C
:103C28001B4AD35C84F84C30543BDBB2052B3FF67F
:103C3800FCAC012202FA03F313F02A0F18D113F097
:103C4800150F3FF4F2AC636B13446363EDE415F8AE
:103C5800012C2169914206F1010607D12046FFF7A0
:103C680013FC3346652FDBD00235D3E7632FFAE721
:103C7800636B013BE9E7012384F84C3001465FE6BA
:103C880058F2030818440408C40400200120400026
:103C9800A84404087FB5064601AD742085E80E00E7
:103CA800FCF740FD0446034695E8070043F8046B1B
:103CB80083E8070001236FF001020025C4E90A32F6
:103CC8000A22C4E90E23C4E90C551420FCF72AFD86
:103CD8002021206404F15000FDF705FD294604F178
:103CE8006000FDF700FD236C256720461D80C4E9B0
:103CF80005552561FFF7C8FB2046FFF7C5FB2046A1
:103D0800FFF7C2FB2046FFF763FCA36C012B06D02C
:103D180094F84C30052B1CBF062384F84C30204601
:103D280004B070BD30B585B001AC05462046FFF73C
:103D380093FB94E80E002846FFF7ACFF05B030BDB2
:103D480030B585B001AD0446014628461FF0A0FDF8
:103D580095E80E002046FFF79DFF05B030BD10B571
:103D6800044690B1C3684068984704F15000FDF7D5
:103D7800E3FC04F16000FDF7DFFC206CFCF7FAFCC3
:103D88002046BDE81040FCF7F5BC10BDD0E9043270
:103D9800013B036152F823007047036942695B1ACB
:103DA800013B52F823007047F8B5446A06460D46B1
:103DB800B4B1D4E900030B44834222D9083100226C
:103DC80001442046FCF7D4FC0246B8B96168204695
:103DD8000831FCF7CDFC63682360336A63603462A2
:103DE800802D2F4638BF802707F10800FCF79AFC82
:103DF8000023076043600446706202E023682B4496
:103E0800236060680544656008342044F8BD38B50F
:103E18000D460C211446FFF7C7FF4FF49D72C0E909
:103E28000124056038BD38B5D0E903329A4204460A
:103E38000D4608D3103399004069FCF78EFCE368FF
:103E480060611033E360D4E90432591C216142F8FF
:103E5800235038BDF8B504461D46D0E90003834217
:103E68000F46164608D31030C100A068FCF775FC51
:103E78002368A06010332360D4E90103421C626008
:103E880053F8301067F3170143F8301003EBC00202
:103E9800D6705560F8BD10B48469CAB20023616C4D
:103EA8005DF8044BFFF7D6BF10F001021CD110F0EB
:103EB80003030CD000F00F03062B15D00A2B11D1E9
:103EC80000090D3803288CBF00200120704770B10D
:103ED80002793A2A08D02D2A08D18068B0FA80F0F1
:103EE80040097047104670470120704718467047D0
:103EF800C20702D540F001007047830710D00309BC
:103F080000F00F00062803D1D80040F002007047E7
:103F1800A3F10E00022809D8064B53F82000704779
:103F280030B103793A2B03D1806870470248704753
:103F380002487047D4440408086104083C65040832
:103F480038B505460C46FFF7AFFF38B12846FFF7EE
:103F5800CFFF0BF0DDF9031B5842584138BD2DE95E
:103F6800F0410F4605461446114689B9204612F01D
:103F780009FE014600F10808A4B90A462846394650
:103F8800FFF745FF01462846FFF74DFF012007E0F0
:103F980001392846FFF701FFFFF786FF0028E4D123
:103FA800BDE8F0812846FFF7F1FE0646FFF7A0FFBF
:103FB800013C48F82400002EDED0B307DCD1686A43
:103FC80000F108039E42D7D3426813449E42D3D2DD
:103FD80073681B0A0233A2EB83024260CCE700003D
:103FE800F7B5866996F84C20A2F1080305460F46F6
:103FF800042B52D8DFE803F003232B384C00D6E912
:104008001510FDF7B1F9902F04460ED1C10000221A
:1040180041F0020105F128000AF044FD28B1426888
:10402800D3071CD542F0010002E0200140F0020055
:104038000146284603B0BDE8F040FFF7F4BE002271
:10404800D6E91510334608F01FFB0246E8E700964C
:10405800D6E915100023012208F094FB0246716C82
:104068002846FFF7D4FEE3E7D6E915100A2906D853
:10407800FDF77AF930B1000140F00600D8E7FDF706
:1040880025F9F7E7D6E91521064810F062FEE5E7BD
:10409800D6E9151010F03CFFE0E7120142F00A00E3
:1040A800C6E700BF3064040810F00102034604D0DC
:1040B80040F001030B600120704790B110F003003D
:1040C80010D11A793A2A0ED19B680B6013F00100BF
:1040D800F1D19A0707D11868034BC31A58425841BF
:1040E8007047704710467047405A04080021FFF790
:1040F80027BF0121FFF724BF2DE9F04F2D2A85B0F6
:104108000446884616461D460BD10021FFF745FE9A
:10411800C0B1870702D10379922B13D005B0BDE84F
:10412800F08F922A20D10021FFF737FE014648B1CF
:10413800880707D14F68FBB2952B0AD12046FFF7B5
:1041480025FE013DA6F11E03012B42D82F46AB46A2
:1041580018E0962BF6D127F0FF07204647F0920784
:10416800FFF714FE4F60D9E7962A08BF0135E9E743
:104178001E2E21D1FFF7BDFFA8B94846FFF7B6FFAD
:1041880000B9D3460BF1FF3A6FB1013F39462046DB
:10419800FFF703FE23696269A3EB0B03814642F82C
:1041A8002300002FE4D100218A450DD1A5EB0A0593
:1041B800012DB3D0332E49E0FFF798FF0028F2D144
:1041C8004846FFF796FFDBE72046FFF7DFFD0131A2
:1041D800EAE7202E1AD100212046FFF7DEFD074628
:1041E800FFF784FF78B93846FFF783FF002800F00F
:1041F8002C81EA212046FFF7C9FD204605B0BDE81D
:10420800F04FFFF710BE4FF48571F3E7052E00F06D
:10421800B580A6F12303DFB2092F0DD8092B0BD8DF
:10422800DFE813F017001700170051005100510084
:10423800910017000A002A01922E40F06781D4E904
:10424800012303EBC20313F8053C2D2B40F0FD803E
:1042580076E1691E2046FFF7A0FD01A9FFF724FFBC
:104268000028A7D0022F9ABFA6F10D07FFB2222778
:10427800A5F10209B9F1000F09DA002D40F03B81E0
:10428800019AD30740F13C8142F00101B5E7494664
:104298002046FFF782FD02A9FFF706FF002889D014
:1042A800222FDDF808A008D001995246384609F0B7
:1042B80075FE09F1FF390190DCE750460EF03BF935
:1042C8000028F1DA76E7691E2046FFF766FD01A9A6
:1042D800FFF7EAFE00283FF46DAFA5F10209B9F136
:1042E800000FCADD09F1FF312046FFF756FD02A98C
:1042F800FFF7DAFE00283FF45DAF49462046FFF796
:104308004CFDC0F3071042283FF454AF44283FF453
:1043180051AFDDF808A02438C7B250460EF00BF9AB
:104328001A2F0BD80028FFF645AF01995246384698
:1043380009F034FEA9F102090190D0E71E2FF4D943
:104348000028F2D136E700212046FFF726FD01A913
:10435800FFF7AAFE00283FF42DAF01212046FFF702
:104368001CFDC0F30710332818BF3F38019914BF4C
:10437800C0B2022009F08CF801907EE700212046A7
:10438800FFF70BFD074600285FD010F0030A04D1A1
:10439800436803F0FE03562B57D001212046FFF750
:1043A800FCFC00F00F03022B4FD1BAF1000F4CD1E7
:1043B8003B792C2B49D1BB6803F00F02022A44D168
:1043C8001B09482B41D1FB68002B3ED09A073CD1F2
:1043D8001A79302A39D1D3F808B04FEA101958465B
:1043E800FFF762FD68B95E495E480CF0E1FEA1691D
:1043F8003A680968054653460CF0B0FF2846FCF7B2
:1044080069F95846FFF774FD4FEAC9030A4607469B
:1044180043F0020104F128000AF044FB47604846D3
:10442800FDF769F803785F2B204608D1FFF7AEFC4B
:1044380000252046FFF7AAFCA846082682E6FFF7D3
:10444800A5FC59462046FFF7EEFCA91C890020462A
:10445800FFF7AAFC46EA05230746C0F80080436038
:1044680000F10801002D74D1962E03D1394620465B
:10447800FFF7D9FC3946C0E601212046FFF78DFC3D
:10448800002107462046FFF788FC07F00F03022BA0
:104498007FF490AE00283FF48DAE10F003027FF455
:1044A80089AE0379322B7FF485AE3909C900D0F87B
:1044B80008902D4841F002010AF0F4FA00283FF470
:1044C80079AE406802AA4FEA191108F005FF029B6D
:1044D800002B3FF46FAED90707D49A077FF46AAE72
:1044E8001968224A91427FF465AE039A002A7FF444
:1044F80061AE0193C1E62046FFF748FC013DBCE6EA
:1045080029462046FFF783FC014676E6962E12D10F
:10451800D4E9012303EBC20313F8153C2D2B94D1E6
:104528002A4641462046FFF71AFD00288DD06368C9
:10453800023B6360F2E5062E02D0362E7FF43AAED7
:104548002A4641462046FFF70AFD00287FF4E6ADDB
:104558007BE72046FFF71AFC013D41F8250081E77B
:1045680034F3030894540408E0440408405A040847
:104578000346006830B550B184070AD14468E5B2F3
:104588008D4206D100F10803200A136030BD0346AE
:10459800FBE70120F9E700002DE9F04FAB4B97B09E
:1045A8000024CDE9073102900D4605A8A8490192DB
:1045B800CDE90544FCF754F840234FF40070CDE9E9
:1045C8000934FCF7AFF820230B908020CDE90C3498
:1045D800FCF7A8F82146CDE90E0513A8CDE911444A
:1045E8000AF02AFA019B002B49D0022B0CBF3F226C
:1045F80022460023696CDFF870A209A8FFF72AFC9D
:1046080000230A9C002C00F06581013C0B99914F16
:104618000A9401EBC40251F83410D6785268C1F3F9
:1046280017098D4911F806B08C49895D632E88BF3A
:1046380041F4807107EB41070BF0300110290BF0B2
:104648000F081ED020294BD0002B00F01C81B8F198
:10465800020F40F00B81012A40D000211BF0010F0E
:1046680002F1FF3306D078880AEA0000B0F5805FCF
:1046780008BF5308012B40F0E680E1B1E3E03D229A
:10468800B7E702B1BBB107EB420725E0BB4637F8F5
:10469800023B03EA0A01B1F5805F0ED195F84C1090
:1046A800C3F30B03994216D109A83146FFF798FCCA
:1046B8002846FEF78DFF0023A3E7531C434504D289
:1046C8003246494609A8FFF7C5FBBBF8001009A800
:1046D800FFF7E1FBEFE701329045D7D8012390E7D8
:1046E8007BB102F10043013B37F813300AEA0303B8
:1046F800B3F5405F21D1002109A80392FFF793FB8E
:10470800039A07EB420490452BD8019B83B1052EF1
:104718000ED1002109A8FFF740FB48B9012109A8DB
:10472800FFF73BFB830744D000F00F00022845D178
:10473800002407EB4803A0465AE0012ACED995F891
:104748004C30062B40F0F480454946480CF030FDCB
:104758006A6C2968044600230CF000FE2046FBF72B
:10476800B9FF039434F8021B01EA0A00B0F5805F30
:1047780016D195F84C00C9B288420ED1082805D147
:10478800314609A80392FFF72BFC039A03922846A7
:10479800FEF71EFF039A0132B5E7002A9ED0CEE746
:1047A800531C4946324609A8FFF754FB039B198856
:1047B8008DE70028BCD003793A2BB9D109A8FFF7B7
:1047C800E5FA09A8FFF7E2FA00230822494609A8F2
:1047D800FFF792FC6FE733F8022D02EA0A01B1F500
:1047E800805F10D1D2B2082A02D1013408F1010841
:1047F8009F42F0D1B8F1010F1CD11BF0400F19D026
:104808000026314610E0214609A80393FFF7C5FAB0
:10481800039B08B108F101080134E9E7FFF7B6FA8C
:104828000136002818BF0146A64209A8F6D1FFF7AD
:10483800FAFA40E71BF0800F04D0002109A8FFF71F
:10484800F2FA013423463246C0E700BF673D00084C
:10485800E3D10008C44504084C4904081445040879
:1048680040F303087054040800F0FFFF012A3FF4E6
:1048780035AF12F001013FF4F1AEB8F1030F7FF448
:104888005EAF0121EAE608EA020303F0010337F804
:10489800134004EA0A01B1F5805F13D195F84C1072
:1048A800C4F30B04A14202F1010409D11BB931463A
:1048B80009A8FFF795FB2846FEF78AFE2246E2E79D
:1048C8002246C4E6531C4946324609A8FFF7C2FAF5
:1048D8002146FCE613A80AF0C3F8129850B14168C3
:1048E80022460831FBF744FF129B5A681A60119A56
:1048F8005A60119395F84C30002B7FF420AF0D9B34
:10490800002B3FF41CAF0E9B0B981B681093FBF712
:1049180031FF0E98FBF72EFF0120FBF7A9FEDDE91A
:104928001001029B83E80300184617B0BDE8F08F1A
:10493800022B01D1034908E7042B0CBF02490349A4
:10494800034803E752F3030874F3030887F30308E3
:104958009454040838B50446406808B9606038BD06
:104968004568FBF707FF2846F7E70000F8B5054656
:1049780030200E461746FBF7EEFE072D044605705D
:10498800C66001D0012D0FD1B368C3F30F13A38202
:1049980008F0A4F8042320612783E3842020FBF790
:1049A800C1FEE0622046F8BD014B5B5DEFE700BF4A
:1049B800FC49040810B50446C06AFBF7DBFE204634
:1049C800BDE81040FBF7D6BE30B5058D0446002281
:1049D800954201D8002030BDE36A03EBC20043686A
:1049E8008B42F8D00132F3E770B504460D461646FF
:1049F800FFF7EAFFC0B9E38C228D9A4208D3063349
:104A0800D900E06AFBF7A9FEE38CE0620633E38491
:104A1800238DE26A591C02EBC300218502F833603A
:104A2800002343704380456070BD034618465B68A9
:104A3800002BFBD1FFF7C8BFF8B544680E462CB968
:104A4800F8BD042BFCD105230370F9E72546284659
:104A58006D68002DF4D077683946FFF7B5FF002858
:104A6800F5D00378043B022BEAD8062535700022DE
:104A780039462046FFF7B8FF0378002BE1D10570CF
:104A88006468F4E7036A1B8B012B1EBFC3685B18BD
:104A9800C3607047836A10B504469B6F406A9847A5
:104AA800238B226A0133918C9BB29942238338BFAE
:104AB800938410BD038B10B5013B0383836A0446BE
:104AC800D3F88430406A984720460121BDE8104059
:104AD800FFF7D8BF2DE9F04F85B004460D46039285
:104AE80098461BB1CB8A43F00803CB82039BEB8328
:104AF800236ADA8A42F03002DA821B78002B46D128
:104B0800A36A039AD3F8B460606A43462946B44658
:104B180005B0BDE8F04F6047DB6A03EBC60B13F83E
:104B28003630053B012B1DD84FF0000917E0EB6A22
:104B380003EBC90213F83930062B0ED1DBF8041049
:104B48005368994209D1A36ABBF802201B69606ABD
:104B58001F460023B8470AF1010A09F101092B8D04
:104B68004B45E4DC0136236A1A8DB242D4DCD4E921
:104B78000903BAF1000FC3D0CDF80080D3F8B840CC
:104B8800039B52462946A04705B0BDE8F08F002692
:104B9800B246E8E7836A10B50446D3F88830406A1D
:104BA80000219847A36A606A1B6B0F219847A36A84
:104BB800606AD3F8CC300121984720460321BDE82C
:104BC8001040FFF75FBF38B5836A04465B6C406AE4
:104BD80000229847A36A606AD3F8C05000231A4697
:104BE8001946A8472046BDE83840FFF7D3BF836A77
:104BF80089681B6D406A002209091847836A896819
:104C0800DB6B406A184710B50446084611461A4639
:104C1800FFF7ACFE236A436000238360E3690BB9A6
:104C2800E06110BD1A469B68002BFBD19060F8E745
:104C38002DE9F04F87B0054600AF0C4611B90121A8
:104C4800116013E011F0030619D10B79682B06D116
:104C5800CB681B0913608C68002CF0D0012604F087
:104C68000F03022B0DD12109002EE9D0AB6A686A27
:104C7800DB6A002298471C37BD46BDE8F08F002646
:104C8800EDE716B9A3681B091360A14659F8043F5C
:104C98004FEA132A09EB8A030AF1FF3BBB60C846B7
:104CA80058F8040F0009FCF71BFCBB6898458344BF
:104CB800F6D10BF1070323F00703ADEB030DC7F89B
:104CC8000CD0E846002359F8040F3B6007F11401A3
:104CD8000009FCF71CFC7A697A600146404624F01A
:104CE8005BF93B687A6801339A45904418D1594674
:104CF800F868FCF739FBAB6A0146DB6A686A002290
:104D08009847002EB7D00834BB689C42B3D054F8FB
:104D1800041FAB6A686A1B6D002209099847F3E70C
:104D28004FF02E0208F8012BCDE731B1826801F06F
:104D38000303134304BF0B68836070472DE9F041F8
:104D480007461E4659B111F0030510D14B68D8B279
:104D580090420CD14FEA13280C1D454501DBBDE8F4
:104D6800F08154F8041F3846B0470135F5E7384656
:104D78003346BDE8F0411847F8B504460E461146DB
:104D88001A46002385780769837003610E4BFFF785
:104D9800D5FF6368BBB9618A51B1228A42B9A36A57
:104DA800606AD3F8A0309847A36A606A1B6C98477A
:104DB800238A628A31462046FFF78CFE003D18BFE1
:104DC8000125A5702761F8BD4556000870B54378E0
:104DD800012B05460C4606D1036A0A461B8B0221A5
:104DE800FFF711FF2061A268216928464C23BDE81E
:104DF8007040FFF7C1BF70B513464278012A0546D7
:104E08000C4604D10A460721FFF7FDFEA061A669FA
:104E1800E268284646233146FFF7AEFFB08A70BDE8
:104E2800024B89689D22FFF789BF00BF4D5B0008D0
:104E3800024B89686B22FFF781BF00BFDD7600084F
:104E480038B543680D46044611464BB905480CF081
:104E5800AFF9294660602046BDE83840FFF765BFD6
:104E680038BD00BF94540408014AFFF7E9BF00BFEA
:104E78008BF303080B79092B70B50CBF858AC58A9B
:104E88004FF6FF739D42044602D1064AFFF7D8FF4A
:104E9800218B628BA36A606A5B6F8A1A2946BDE818
:104EA8007040184798F3030838B5054679B101F002
:104EB8000F03022B0DD10C09204609F02DFC002808
:104EC80006DA0649064822460CF008FA686000200F
:104ED80038BD044AFFF7B4FFF9E700BFB1F3030890
:104EE80028540408B6F3030870B51446054612782A
:104EF8000E4683B132B1032A04D0104ABDE870408F
:104F0800FFF79EBF032626706168286AFFF78DFDAC
:104F180000B1067070BD62B901232370006A214692
:104F2800FFF78AFD2378012BF4D1054A314628463C
:104F3800E4E7062AEED0034AE0E700BFC6F3030819
:104F4800D3F30308E0F303082DE9F3414378012B79
:104F580004460D461AD10B79102B0CBF4FF00108EF
:104F68004FF0000808D0036A1B782BB9114A02B029
:104F7800BDE8F041FFF764BF01AA6D2105F1080003
:104F8800FFF7F6FA00260746B74202D102B0BDE89D
:104F9800F081019B206A53F8261000220909FFF7C7
:104FA80023FD4346024629462046FFF79DFF01366A
:104FB800EAE700BFE7F3030810B4026A0446407842
:104FC80001280B4604D15DF8044B104602F0F3BDEE
:104FD800A16A606A5DF8044B203102F0FBBD10B491
:104FE80004460B466278006A012A03D15DF8044B37
:104FF800FFF7FABCA16A02461031606A5DF8044BFB
:1050080002F0E8BD70B505460C4600292ED0CA0747
:1050180006D5836A5B6B4910686ABDE8704018471B
:105028008B0717D004F00F04022C4FEA11110AD095
:10503800062C0CD0052919D0836A406A1B6BBDE881
:105048007040C9B21847BDE87040FFF7C8BF836A0F
:105058009B6BE1E7836A0968DB68406A98472279B5
:10506800034B214653F822302846D6E770BD00BFCF
:10507800044A04082DE9F74F05460C4616461F4614
:105088002046FFF733F840B16EB9AB6A9B6E3946DC
:10509800686A03B0BDE8F04F18472046FFF729F8C3
:1050A80020B1002EF1D103B0BDE8F08F002C48D01C
:1050B800A30746D163684FEA132BDBB21E2B18D126
:1050C800DEB1043404EB8B0B5C45ECD054F8041FC0
:1050D8003B4632462846FFF7CDFFF5E75AF8041F4E
:1050E800019243462846FFF7C5FF09F10109019AD5
:1050F80011E01F2B1FD1002EE3D0D5F80C8008F14A
:105108000103EB600BF1FF3304F1040A4FF00009CF
:10511800009386F00102009B4B45DFDC0BF1010197
:105128003B4654F8211032462846FFF7A3FFAB6AE6
:1051380041469B6AACE7202B03D1A46886F00106A0
:105148009EE721462846FFF75DFFAB6A686ADB6E7B
:105158003A46314603B0BDE8F04F184738B5026A01
:105168001278072A04460B4606D0022A04D0BDE866
:105178003840144AFFF764BE9D6885B9A36A606A1F
:105188001B6B0F219847A36A606AD3F8CC300021C3
:10519800984720460121BDE83840FFF773BCAB07AC
:1051A8000BD12B79AF2B08D12046A968FFF72AFF2E
:1051B8002046BDE83840FFF7EDBC29462046FFF7FA
:1051C80021FFE0E7FDF3030870B54378CE68012BB3
:1051D8000446154606D1036A0A461B8B2946FFF783
:1051E80012FD7061002371691A462046FFF772FCB0
:1051F800F1682046FFF706FF062D05D1A36A606A0D
:10520800D3F8883000219847A36A606AD3F8BC5065
:105218000023AC461A46BDE870400121604738B506
:105228000C460546C968FFF7EDFEA1682846BDE8AB
:105238003840FFF7E7BE0B79342B70B504460D46AE
:1052480010D18968FFF7DEFEED68AD6885B9A36AFD
:10525800606A1B6B0F219847A36A0422D3F8A03019
:1052680002211AE0836A406A1B6B0F219847ECE71A
:10527800AB071FD12B799A2B13D1A36A606A1B6BDA
:105288000F219847A9680029E6D02046FFF7BAFE03
:10529800A36AD3F8A03004220321606ABDE87040F5
:1052A80018479B2B06D1A9682046FFF7ABFEEB6891
:1052B8009968E8E729462046FFF7A4FECCE710B531
:1052C80004468968FFF79EFEA36A606ADB6CBDE846
:1052D80010400021184700002DE9F7438D68044667
:1052E80016465DB9002A75D0836AD3F8A030022229
:1052F8002946606A03B0BDE8F043184715F0030774
:1053080040F08A802B79372B13D132B1836A406AF7
:10531800D3F8A03002220121984720462946FFF7FA
:1053280071FEA36A606AD3F8A43003B0BDE8F04305
:1053380018479F2B70D1EB681A79A12A5AD1A2215C
:1053480001AA03F10800FFF713F9A968804621B301
:105358008B0722D10B79372B1FD136B1A36A411C99
:10536800D3F8A030606A02229847A9682046FFF760
:1053780049FEA36A606AD3F8A43098474FF0010940
:10538800474510D1B9F1000F24D1A36A606AD3F858
:10539800A0300322791C98471CE02046FFF732FE14
:1053A8004FF00009ECE7019B53F82710A9B18E07CD
:1053B80013D10E79A6F13700464246412046FFF741
:1053C80021FEB9F1000F11D04EB9184A29462046DE
:1053D800FFF736FD03B0BDE8F0830026EEE7A36AC9
:1053E800606AD3F8A43098470137C9E7002EFBD08C
:1053F8000F4AEBE7AB685BB19A0709D11B79372BEA
:1054080006D10422294603B0BDE8F043FFF7DCBE0D
:10541800052229462046F6E729462046FFF7F2FDF1
:10542800A36A0322D3F8A030012162E708F4030835
:1054380019F403080122FFF74FBF70B50D46C9687C
:105448000446FFF7DFFDA968A36A606AD3F89830BD
:10545800C1F30711332918BF3F39BDE8704014BFA5
:10546800C9B202211847F8B54F680C468968054645
:10547800FFF7C8FD3F0A0C3400260236B74204F194
:10548800080400DCF8BD54F8041C2846FFF7BAFDF0
:1054980054F8081CAB6A686AD3F89C3009092439A7
:1054A800C9B29847E9E72DE9F0410C464E6854F82F
:1054B800081F0546FFF7A6FDA6F10D085FFA88F854
:1054C800360A0127B74201DBBDE8F08154F8041F12
:1054D8002846FFF797FDAB6A686AD3F89C304146C7
:1054E80098470137EEE72DE9F0414E6804460D462E
:1054F800360A8968FFF786FD032E83BFD4F80C802F
:1055080008F10103E3604FF0000801277B1C9E426D
:1055180022DC032E55D9E568606A6B1CE360A36A38
:1055280029469B6E9847A36A606A9B6A41469847DA
:10553800A36A606A9B6801219847A36A606A1B6E28
:105548009847A36A606ADB6D9847A36A606A9B6A9A
:105558002946BDE8F0411847296920460237FFF778
:1055680051FDB74207DAA36A606A5B6D9847A36A80
:10557800606A5B6E9847EB68A26A606AD2F89C2002
:1055880003F00F010A2911D1C3F30713252B1ABF02
:10559800343BD9B206219047B74205DAA36A606A5C
:1055A8001B6F4246002198470835AFE719798529CE
:1055B80001D13221EFE79B680BB90721EBE73321D3
:1055C800E9E7BDE8F08110B504468968FFF71AFDE0
:1055D800A36A606AD3F89830BDE8104003211847E1
:1055E8002DE9F0470D46D0F80C8055F8046F5FFAA6
:1055F80086F9A9F11E03D3F1000949EB030908F163
:1056080001030446C360360A0027B74206DBA36AD3
:10561800606A9B6A4146BDE8F047184755F8041F81
:1056280020460137FFF7EEFCB742F0DAA36A606A5A
:105638001B6F424649469847E7E7000001F00F0311
:10564800022B70B5044612D00B79492B09D0483B80
:10565800082B18D8DFE803F00817071717171705DE
:1056680007000123A37070BD8E680D6975B9A37812
:10567800002BF8D1638A002BF5D020461D4ABDE8DF
:105688007040FFF7DDBBD1E90265EFE7A3783BB3D4
:10569800238A01339BB2012B23820ED1618AD4E97C
:1056A8000903D1B1D3F8A03000229847A36A606AF1
:1056B800D3F8A03002220021984729462046FFF758
:1056C800A1FCA36A606A9B6B31099847A36A606A68
:1056D800D3F8A430BDE8704018471B6C9847E5E73D
:1056E800638A0133638229462046BDE87040FFF78C
:1056F80089BC00BF24F403082DE9F041C568D1F83E
:105708000C800E46AB1C04460022D8F80810C36073
:105718002B46FFF7AFFCB1682046FFF773FCA36A7E
:10572800606A9B6E6F1C39469847A36A606A9B6AD9
:1057380029469847A36A606A9B684FF0FF319847EB
:10574800D8F80C102046FFF75DFCA36A606A9B6AD4
:105758003946BDE8F04118472DE9F047C668D0F84A
:1057680014A0B0F81A908682B31CC36006F1010831
:10577800038BA0F816800446438388680D46FEF71D
:10578800B5FCF8B9E768A8687B1CE360FEF7B1FCD4
:1057980020B9A36A606A9B6E41469847A36A606A0B
:1057A8009B6A39469847E9682046FFF72BFCA36AAD
:1057B800606A9B6A41469847A9683B460122204691
:1057C800FFF758FC2969C4F814A02046A4F81A90D9
:1057D800FFF718FCA36A606A9B6A3146BDE8F04788
:1057E80018472DE9F347C668731CC36004468868E8
:1057F8000D46FEF77BFC0246E8B9E768A9687B1C02
:10580800E36020463B46FFF735FC2046E968FFF792
:10581800F9FBA868FEF76DFCD8B92B690BB96B6961
:1058280023B1A36A606A9B6E31469847A36A606A8F
:105838009B6A3946984701AA712105F11000FEF7C5
:1058480097FE002781464F450BD169692046FFF72F
:10585800D9FBA36A606A9B6A3146984702B0BDE8E3
:10586800F087019B53F82780D8F80800FEF73EFC24
:105878000246F8B9D4F80CA0D8F808100AF10103C8
:10588800E36020465346FFF7F5FB2046D8F80C1096
:10589800FFF7B8FBD8F80800FEF72BFC0028D8D192
:1058A800A36A606A9B6E31469847A36A606A9B6ADE
:1058B800514698470137C6E7184B2DE9F041D3F810
:1058C800F87104460D463FBBC6688968731CC360FF
:1058D80001223346FFF7CEFBA36A606A5B691F218A
:1058E80001229847E96851B12046FFF78BFBA36A6C
:1058F800606AD3F8BC503A463B460121A847A36AE0
:10590800606AD3F8C83001219847A36A606A9B6A25
:105918003146BDE8F0411847BDE8F081C4040020D5
:1059280070B58D6804463DB9836AD3F8C8302946F6
:10593800606ABDE870401847AB070ED12B795E2B23
:105948000BD1A968FFF75EFBE9682046FFF75AFB11
:10595800A36A0221D3F8C830EAE729462046FFF7B0
:1059680051FBA36A0121D3F8C830E1E710B504461A
:105978008968FFF747FBA36A606ADB6DBDE81040E2
:10598800184700002DE9F041026A1278072A0446F8
:1059980004D0BDE8F0411A4AFFF752BA8D685DB9E4
:1059A800836A406A1B6B0F219847A36A606AD3F821
:1059B800C430BDE8F041184715F003021DD12B791A
:1059C8001B2B1AD1C668EF68731CC360B9683346CD
:1059D800FFF750FBA9682046FFF714FBA36A606A2B
:1059E800D3F8C4309847A36A606A9B6A31469847DF
:1059F800F9682046FFF706FBD7E72946F9E700BF15
:105A080042F403082DE9F0410C46054654F8046FAA
:105A1800360A04EB8607BC4208D1AB6A686AD3F839
:105A2800A03031460022BDE8F041184754F8041F61
:105A38002846FFF7E7FAEEE7896810B4034641B94C
:105A4800826A406AD2F8A0400A4623465DF8044BB1
:105A580018474A68120A022A0BD1CA684AB1940741
:105A680007D11279AC2A04D15DF8044B0622FFF75E
:105A7800ABBB5DF8044B1846FFF7C4BF2DE9F041F6
:105A88000E46054656F8043F0F464FEA13280024F1
:105A9800444501DBBDE8F08156F8041F2846FFF7AE
:105AA800B1FA6B683BB10234284657F82410BDE8B8
:105AB800F041FFF73AB90134EAE710B50446FFF7B9
:105AC800DDFFA36A606AD3F89C30BDE8104022214C
